:020000040800F2
:1000000060200020651A000821050008230500086B
:10001000270500082B0500082F0500080000000038
:100020000000000000000000000000003305000890
:1000300035050008000000003705000839050008F4
:100040007F1A00087F1A00087F1A00087F1A00082C
:100050007F1A00087F1A00087F1A00087F1A00081C
:100060007F1A00087F1A00087F1A00087F1A00080C
:100070007F1A00087F1A00087F1A00087F1A0008FC
:100080007F1A00087F1A00087F1A00087F1A0008EC
:100090007F1A00087F1A00087F1A00087F1A0008DC
:1000A0007F1A00087F1A00087F1A00087F1A0008CC
:1000B0007F1A00087F1A00087F1A00087F1A0008BC
:1000C0007F1A00087F1A00087F1A00087F1A0008AC
:1000D0007F1A0008D91900087F1A00087F1A000843
:1000E000871400087F1A00087F1A00087F1A00088A
:1000F0007F1A00087F1A00087F1A00087F1A00087C
:100100007F1A00087F1A00087F1A00087F1A00086B
:100110007F1A00087F1A00087F1A00087F1A00085B
:100120007F1A00087F1A00087F1A00087F1A00084B
:100130007F1A00087F1A00087F1A00087F1A00083B
:100140007F1A00087F1A00087F1A00087F1A00082B
:100150007F1A00087F1A00087F1A00087F1A00081B
:100160007F1A00087F1A00087F1A00087F1A00080B
:100170007F1A00087F1A00087F1A00087F1A0008FB
:100180007F1A00087F1A000800F002F800F069F8F2
:100190000AA090E8000C82448344AAF10107DA45E2
:1001A00001D100F05EF8AFF2090EBAE80F0013F0CB
:1001B000010F18BFFB1A43F001031847485C000009
:1001C000685C00000A444FF0000C10F8013B13F08B
:1001D000070408BF10F8014B1D1108BF10F8015BA0
:1001E000641E05D010F8016B641E01F8016BF9D193
:1001F00013F0080F1EBF10F8014BAD1C0C1B09D1EA
:100200006D1E58BF01F801CBFAD505E014F8016B5B
:1002100001F8016B6D1EF9D59142D6D370470000ED
:100220000023002400250026103A28BF78C1FBD8FF
:10023000520728BF30C148BF0B607047662904F0E1
:10024000B481002070471FB504F0A5F903F03AF916
:1002500004000020002103F08FFEE0601FBD10B5F8
:1002600010BD03F033FA1146FFF7EDFF00F008F878
:1002700003F051FA03B4FFF7F2FF03BC01F04EFBA9
:100280002DED048B4FF4A06001F00CFCA82001F0D0
:10029000C3FA4FF4964001F04EFB00F09DFE00F0D3
:1002A000E3FD00F0BDFE01F017F801F0A0F800F04A
:1002B000EDFAB52000F0E3FF7149088001F060FA23
:1002C000B02000F091FF054600F02AFF10EE104A22
:1002D000204604F0EFF841EC190B53EC192B9FED7D
:1002E000690B51EC100B03F08FFE41EC180B03F07F
:1002F00059FE664908600A2001F0A8FA102364A29A
:100300000021084600F038FC102365A216210020C9
:1003100000F032FCB3E001F0D6F801F0EEF800BFD7
:10032000634800780028FBD0002061490870B420A1
:1003300000F083FF5F4908800846008800F4C06031
:1003400018B15DA002F0D4FD15E0B32000F04CFF21
:10035000044600F0E5FE4D48D0ED000A20EE200AEC
:10036000B0EE081AC0EE010AB2EE020A30EEC00A80
:10037000544880ED000A01F0A6F800BF4C48007810
:100380000028FBD000204A490870B42000F055FF37
:10039000484908800846008800F4C06018B14AA0A7
:1003A00002F0A6FD15E0B32000F01EFF044600F0A9
:1003B000B7FE3648D0ED000A20EE200AB0EE081A4B
:1003C000C0EE010AB2EE020A30EEC00A414880EDEA
:1003D000000A3C4890ED000ADFED3F0AB4EEE00A67
:1003E000F1EE10FA15D2006804F064F841EC180B35
:1003F00053EC182B39A002F07BFD3248006804F062
:1004000059F841EC180B53EC182B3AA13B4802F079
:100410007BFD304890ED000ADFED2F0AB4EEE00AD4
:10042000F1EE10FA15D2006804F044F841EC180B14
:1004300053EC182B32A002F05BFD2648006804F054
:1004400039F841EC180B53EC182B2AA1324802F072
:100450005BFD1023294A00212D2000F08DFB102385
:100460002D4A16212D2000F087FB00F0ECF92B48D7
:10047000006808B9012000E00020284908604AE728
:100480000000002014AE47E17A846E400400002092
:1004900054696D313A2020202020202020755300FF
:1004A00054696D323A2020202020202020755300EE
:1004B000841400208E140020C9CFD3CED2E7B3F627
:1004C000090D0A0008000020CFC2D3CED2E7B3F650
:1004D000090D0A000C000020000061446279746577
:1004E000735F557020203D202020256620757309FC
:1004F0000D0A0000252E34660000000020000020B8
:1005000062797465735F446F776E3D2020202566A5
:10051000207573090D0A0A002800002080824042DD
:10052000704700BFFEE700BFFEE700BFFEE700BF69
:10053000FEE7704770477047704700000CB5002019
:10054000019000907648006840F48030744908605B
:1005500000BF7348006800F4003000900198401C10
:100560000190009818B90198B0F5A04FF1D16C48EE
:10057000006800F4003010B10120009001E000207C
:1005800000900098012846D165484030006840F04E
:1005900080506349403108606248006840F4404040
:1005A000604908605E48083000685D4908310860AD
:1005B0000846006840F4004008600846006840F4BF
:1005C000A05008605848091F0860081F006840F0E4
:1005D0008070091F086000BF5148006800F000707B
:1005E0000028F9D040F20570504908604C480830A6
:1005F000006820F003004A49083108600846006896
:1006000040F00200086000BF45480830006800F074
:100610000C000828F8D10CBD10B54548006840F41E
:100620007000434908603E48006840F001003C49C2
:10063000086000203A4908310860394800683D499F
:100640000840374908603C48091D0860081F0068D9
:1006500020F48020091F0860002031490C31086017
:10066000FFF76CFF4FF0006031498039086010BD22
:1006700070B500200022022300240221284D0835F5
:100680002D6805F00C0020B1042806D0082834D1CC
:1006900007E02A4D2A4E356033E02A4D284E35605A
:1006A0002FE01F4D2D1D2D68C5F380541C4D2D1DB1
:1006B0002D6805F03F0154B1224DB5FBF1F5184E00
:1006C000361D3668C6F3881605FB06F209E01B4D99
:1006D000B5FBF1F5124E361D3668C6F3881605FBDC
:1006E00006F20F4D2D1D2D68C5F301456D1C6B00E5
:1006F000B2FBF3F5124E356003E0104D104E35603D
:1007000000BF00BF064D08352D68C5F303150E4E1A
:10071000705D0B4D2D68C540094E356070BD000001
:10072000003802400070004008544007003C02407E
:1007300088ED00E0FFFFF6FE103000240024F400F6
:100740003800002000127A003C00002070B50446FA
:100750000E462EB14FF48041FA4801F015FB04E03B
:100760004FF48041F74801F011FB4021F64801F0B9
:100770000DFB00251BE04FF40051F24801F006FB91
:1007800004F0800028B14FF40041EE4801F0FCFA7B
:1007900004E04FF40041EB4801F0F8FA4FF4005147
:1007A000E84801F0F1FA6006040E681CC5B2082D95
:1007B000E1DB4021E44801F0E7FA4FF48041E148F1
:1007C00001F0E2FA70BD10B504461CB90021A62064
:1007D000FFF7BCFF012C03D10021A720FFF7B6FFD4
:1007E00010BD10B504463CB90021C820FFF7AEFF8C
:1007F0000021A120FFF7AAFF012C07D10021C02072
:10080000FFF7A4FF0021A020FFF7A0FF10BD10B547
:1008100000218D20FFF79AFF00211420FFF796FF9B
:100820000021AF20FFF792FF10BD10B500218D20F1
:10083000FFF78CFF00211020FFF788FF0021AF2079
:10084000FFF784FF10BD70B500241CE004F1B00177
:10085000C8B20021FFF77AFF00210846FFF776FFB4
:1008600000211020FFF772FF002508E0B74901EBD7
:10087000C501085D0121FFF769FF681CC5B2802D25
:10088000F4DB601CC4B2082CE0DB70BD70B5002442
:100890000CE0002506E00020AC4901EBC50108553D
:1008A000681CC5B2802DF6DB601CC4B2082CF0DBDE
:1008B000FFF7C9FF70BD70B50A46CE1701EB56763B
:1008C000C6F3C703CE1701EB5676F610A1EBC606AA
:1008D000F4B20122A240D5B29C4A02EBC002D25C23
:1008E0002A439A4E06EBC006F25470BD70B50B4613
:1008F000CE1701EB5676C6F3C702CE1701EB56763C
:10090000F610A1EBC606F4B20123A340DDB28F4B73
:1009100003EBC0039B5CDB438C4E06EBC006B35479
:100920008A4B03EBC0039B5C2B43884E06EBC0064F
:10093000B354864B03EBC0039B5CDB43834E06EB57
:10094000C006B35470BD2DE9F84F05460E46174654
:100950009846BD420DD1002406E03019C1B22846A8
:10096000FFF7A9FF601CC4B2A8EB0600A042F4DCAC
:1009700030E046450CD1002406E02919C8B23146C2
:10098000FFF799FF601CC4B2781BA042F5DC21E0A0
:10099000A8EB060000F0FF0A781B00F0FF0B0AEB43
:1009A0008A00400090FBFBF000F0FF0900240EE0FD
:1009B00004FB09F00A2190FBF1F03044C0B2291980
:1009C0000090C8B20099FFF776FF601CC4B2781B94
:1009D000A042EDDCBDE8F88F2DE9F04306460F4656
:1009E0009046002544463BE03A1BD1B27219D0B282
:1009F000FFF761FF3A1BD1B2721BD0B2FFF75BFF6A
:100A00003A19D1B2721BD0B2FFF755FF3A19D1B2E1
:100A10007219D0B2FFF74FFF7A19D1B23219D0B2A2
:100A2000FFF749FF7A1BD1B23219D0B2FFF743FF6B
:100A30007A1BD1B2321BD0B2FFF73DFF7A19D1B287
:100A4000321BD0B2FFF737FF6D1C05FB05F004FB2E
:100A5000040008FB1809B9F1000F01DD641E6D1ECA
:100A60006000604308FB08F18842BDDABDE8F0830E
:100A70002DE9FF4F81B080460E461C460096204669
:100A8000E31704EB5373DB1021464FEAE47C04EBDD
:100A90005C7C4FEAEC0CA4EBCC0CBCF1000F02D058
:100AA0004FF0010C01E04FF0000C6344224604EBD0
:100AB000D27C4FEA6C0C03FB0CF303F0FF0B0398A2
:100AC0002038C7B2002553E00C2C07D107EB4700B4
:100AD0001F4901EB800010F805A014E0102C05D18F
:100AE0001C4800EB071010F805A00CE0182C07D1EB
:100AF00007EBC700184901EB800010F805A002E0E1
:100B000005B0BDE8F08F4FF000092BE00AF080003F
:100B100020B131464046FFF7CEFE03E03146404665
:100B2000FFF7E4FE4FEA4A604FEA106A701CC6B253
:100B30000098301AA04211D1009E08F1010000F087
:100B4000FF0812E00004024000080240B814002030
:100B5000AE450008224A00081250000809F10100C1
:100B600000F0FF09B9F1080FD0DB00BF681CC5B267
:100B70005D45A9DB00BFC3E7F0B506460F46144646
:100B80001D4613E022782B4639463046FFF770FFAA
:100B9000284605EBD07106EB6101CEB2C5F18000AD
:100BA000B04202DA0026B81CC7B2641C20782028A4
:100BB00002DB20787E28E5DDF0BD10B5024601207D
:100BC00000E050430B1EA1F10104E1B2F9D110BDC8
:100BD0002DE9F04F06468A4691461F46099C00259E
:100BE0002CE0781B401EC1B20A20FFF7E6FFB9FBDC
:100BF000F0F00A21B0FBF1F201FB1208B8F1000F8E
:100C00000CD1A34604EBDB71491001FB0561C8B2AE
:100C1000234630225146FFF72BFF0DE0A34604EB9D
:100C2000DB71491001FB0561C8B208F13001CAB29D
:100C300023465146FFF71CFF681CC5B2BD42D0DBFE
:100C4000BDE8F08F2DE9FF4F0746884691461C46C8
:100C50004FF0000B0297CDF804802046E11704EB1B
:100C60005171C1F3C701009160E009FB04F0C117A5
:100C700000EB51710BEBE101CEB20BF1010000F082
:100C8000FF0B002550E0102C05D1CC4800EB0610DE
:100C9000405D03901BE0182C07D106EBC600C84945
:100CA00001EBC000405D039011E0202C05D1C54848
:100CB00000EBC610405D039009E0402C05D1C2480E
:100CC00000EB4620405D039001E0BDE8FF8F4FF050
:100CD000000A17E0039800F0010020B141463846B1
:100CE000FFF7E9FD03E041463846FFF7FFFD0398B3
:100CF0004010039008F1010000F0FF080AF1010024
:100D000000F0FF0ABAF1080FE4DB781CC7B20298C2
:100D1000381AA04204D1029F01980830C0B2019055
:100D2000DDF80480681CC5B2A542ACDB0098411E0A
:100D3000C9B20091002898D100BFC6E78046894615
:100D40000026002749E03FB91023324618218020B1
:100D5000FFF778FF701CC6B2464522D14FF0000A5B
:100D60001AE0002410E000250AE0984800EBC400D7
:100D7000415D601E954A02EBC0004155681CC5B23A
:100D8000082DF2DB601CC4B2902CECDBFFF75BFD9E
:100D90000AF1010000F0FF0A4FEA09105045E0DCBB
:100DA0000026781CC7B2102F00D10027002410E0C5
:100DB00000250AE0854800EBC400415D601E834ABF
:100DC00002EBC0004155681CC5B2082DF2DB601C67
:100DD000C4B2902CECDBFFF736FDB4E770B50446E7
:100DE0000D4605F1B001C8B20021FFF7AFFC10219C
:100DF00041EA14100021FFF7A9FC04F00F000021C4
:100E0000FFF7A4FC70BD2DE9F05F05460E461746BE
:100E10009846DDF828B04FF00009CA460024E117D3
:100E200004EB5171C910A4EBC10101B901E0601CD0
:100E3000C4B2344614E021462846FFF7CFFFAA4645
:100E40000AE01BF809000121FFF780FC09F1010904
:100E50000AF1010000F0FF0ABA45F2DB601CC4B2DF
:100E60004445E8DBBDE8F09F1CB50121062001F0F8
:100E7000ADF94FF47040009001208DF8040000207F
:100E80008DF8060003208DF8050001208DF807007D
:100E900069464F4800F0FCFE4020009001208DF88C
:100EA000040000208DF8060003208DF805000120C5
:100EB0008DF807006946474800F0EAFE4FF480517C
:100EC000434800F063FFC82000F008FD4FF4805154
:100ED0003F4800F059FF0021AE20FFF737FC00210A
:100EE0000846FFF733FC00211020FFF72FFC0021FC
:100EF0004020FFF72BFC00218120FFF727FC002179
:100F0000CF20FFF723FC0021A120FFF71FFC0021C9
:100F1000C820FFF71BFC0021A620FFF717FC0021CB
:100F2000A820FFF713FC00213F20FFF70FFC002152
:100F3000D320FFF70BFC00210846FFF707FC002138
:100F4000D520FFF703FC00218020FFF7FFFB0021E5
:100F5000D920FFF7FBFB0021F120FFF7F7FB002171
:100F6000DA20FFF7F3FB00211220FFF7EFFB00214F
:100F7000DB20FFF7EBFB00214020FFF7E7FB002120
:100F80002020FFF7E3FB00210220FFF7DFFB002119
:100F90008D20FFF7DBFB00211420FFF7D7FB00219A
:100FA000A420FFF7D3FB0021A620FFF7CFFB0021F1
:100FB000AF20FFF7CBFBFFF769FC1CBD4C00002006
:100FC000AC0100208402002084040020B81400201A
:100FD00000040240000802401CB50121022001F07B
:100FE000F5F840F20110009001208DF80400002077
:100FF0008DF8060003208DF8050001208DF807000C
:101000006946064800F044FE0121044800F0BEFE97
:101010004FF48071014800F0B7FE1CBD000402408F
:1010200000B587B00121084601F0D0F8012108037E
:1010300001F026F9052211469F4800F0B4FE052272
:1010400006219D4800F0AFFE052207219A4800F0D6
:10105000AAFE2020009002208DF805008DF80400E3
:1010600000208DF806008DF807006946924800F0D0
:101070000FFE4020009069468F4800F009FE802056
:10108000009069468C4800F003FE1020009001207B
:101090008DF804006946884800F0FAFD1021864862
:1010A00000F072FE0020ADF808004FF48270ADF839
:1010B0000A000020ADF80C00ADF80E000120ADF8DC
:1010C00010004002ADF812002020ADF814000020FE
:1010D000ADF816000720ADF8180002A9774801F016
:1010E00089FC0121754801F07FFD07B000BD10B5F6
:1010F000044600BF0221714801F040FE0028F9D0EB
:1011000021466E4801F0F1FD00BF01216B4801F05E
:1011100035FE0028F9D0694801F0E4FDC0B210BDE9
:1011200010B52DED068B04469FED650AB0EE408AA2
:101130000F2000EA14700103C4F3036001EB0021E7
:10114000C4F3035001EB0011C4F30340084400EE64
:10115000100AB8EE400AB0EE408AC4F3033000EE45
:10116000100AF8EE400AB3EE001A80EE810A70EE23
:10117000080AC4F3032000EE100AB8EE400A9FEDFF
:10118000511AC0EE011A70EEA10AC4F3031000EE6A
:10119000100AB8EE400A9FED4C1AC0EE011A70EE2C
:1011A000A10A04F00F0000EE100AB8EE400A9FED0D
:1011B000471AC0EE011A30EEA10AB0EE408A18EECE
:1011C000100A03F077F941EC1A0B9FED410B53EC39
:1011D000102B03F071F841EC190B02F0E3FE00EE66
:1011E000100ABDEC068B10BD70B505460024102119
:1011F000314800F0CBFD032000F028FB2846FFF724
:1012000076FFFF20FFF773FF04432402FF20FFF760
:101210006EFF04432402FF20FFF769FF044324020A
:10122000FF20FFF764FF0443032000F00FFB1021B1
:10123000214800F0A9FD204670BD70B50546002488
:1012400010211D4800F0A2FD032000F0FFFA2846FF
:10125000FFF74DFFFF20FFF74AFF04434FF6FF70F3
:1012600000EA0424FF20FFF742FF0443032000F0BC
:10127000EDFA1021104800F087FD204670BD70B5D2
:101280000446002510210C4800F080FD032000F0EA
:10129000DDFA2046FFF72BFF032000F0D7FAFF20EE
:1012A000FFF725FF0546032000F0D0FA1021024881
:1012B00000F06AFD284670BD000002400030014089
:1012C00000000000000080430000804500008047CF
:1012D000000000000000D03F1CB50121052000F0F7
:1012E00075FF4FF48050009001208DF8040000201D
:1012F0008DF8060001208DF805008DF8070069467D
:10130000FC4800F0C5FC4FF4006000906946F948C5
:1013100000F0BEFC4FF4007000906946F54800F004
:10132000B7FC4FF4807000906946F24800F0B0FCC2
:101330004FF48060009000208DF8040001208DF8AB
:1013400007006946EB4800F0A3FC1021E94800F0D3
:101350001BFD4FF48051E74800F016FD4FF400618B
:10136000E44800F011FD4FF48071E24800F00CFDFC
:101370001CBD2DE9F04705460C46E6B2C4F307272D
:10138000C4F307484FEA14691021DA4800F0FEFC64
:101390002846FFF7ACFE4846FFF7A9FE4046FFF798
:1013A000A6FE3846FFF7A3FE3046FFF7A0FE102149
:1013B000D04800F0E9FCBDE8F08710B54FF480712B
:1013C000CC4800F0E1FC0A2000F088FA4FF480716C
:1013D000C84800F0DBFCC82000F080FA4FF48071B0
:1013E000C44800F0D1FC642000F078FA10BD10B5BC
:1013F000FFF7E3FFC0498020FFF7BBFFBF49812013
:10140000FFF7B7FFBE498220FFF7B3FFBD49832036
:10141000FFF7AFFFBC498420FFF7ABFFBB49852036
:10142000FFF7A7FFBA498620FFF7A3FF10BD0EB54F
:101430000121880300F024FF0121084600F0C6FEC8
:101440000A21002001F051FA4FF480600090002042
:101450008DF804000C208DF8050001208DF80600A1
:10146000684601F0C9FC28208DF8080003208DF89B
:10147000090002208DF80A0001208DF80B0002A857
:1014800000F015FB0EBD10B54FF4806001F00BFDB0
:1014900058B101209F4908709F480078401C9E4920
:1014A00008704FF4806001F009FD10BD10B51021E7
:1014B000904800F06BFC5020FFF719FE10218D487A
:1014C00000F062FC10BD10B510218A4800F05EFCEF
:1014D0007020FFF70CFE1021864800F055FC10BD6F
:1014E00010B51021834800F051FC0120FFF7FFFDEB
:1014F0001021804800F048FC10BD10B510217D4837
:1015000000F044FC0520FFF7F2FD012000F09EF9F9
:101510001021784800F038FC10BD10B51021754836
:1015200000F034FC0220FFF7E2FD1021714800F0CA
:101530002BFC10BD10B5002410216E4800F026FCD5
:10154000032000F083F9B420FFF7D1FDFF20FFF75F
:10155000CEFD04432402FF20FFF7C9FD044303200E
:1015600000F074F91021634800F00EFC032000F035
:101570006DF9204610BD10B52DED028B9FED670A69
:10158000B0EE408A10215B4800F000FC032000F020
:101590005DF9B820FFF7ABFDFF20FFF7A8FD04467B
:1015A000032000F053F91021524800F0EDFB032016
:1015B00000F04CF904F0800028B1B7EE000A38EED4
:1015C000000AB0EE408A04F07F04E01000EE100A3A
:1015D000F8EEC00AB3EE001A80EE810A70EE080A37
:1015E0000F2000EA440000EE100AB8EEC00A9FED9A
:1015F0004C1AC0EE011A30EEA10AB0EE408AB0EEED
:10160000480ABDEC028B10BD10B51021394800F01E
:10161000BDFB032000F01AF9B720FFF768FDFF209B
:10162000FFF765FD3F490870FF20FFF760FD3D496A
:101630004870FF20FFF75BFD3A498870FF20FFF7F5
:1016400056FD3849C870FF20FFF751FD3549087134
:10165000FF20FFF74CFD33494871FF20FFF747FD9E
:1016600030498871032000F0F1F81021214800F082
:101670008BFB032000F0EAF810BD10B500240AE04F
:1016800029480068C0432949C1F88002642000F05D
:1016900025F9601CC4B2052CF2DB10BD70B5044600
:1016A00042F2107506E0281EA5F101018DB201D1AC
:1016B000FFF7E3FF02211E4801F060FB0028F2D093
:1016C00021461B4801F011FB42F2107506E0281E6E
:1016D000A5F101018DB201D1FFF7CFFF012114481F
:1016E00001F04CFB0028F2D0114801F0FBFAC0B227
:1016F00070BD00000000024000E889430140442121
:10170000020014A00348A2F8044A0020050000408B
:101710000661F3CE84140020851400200000000030
:1017200000008043861400208082404200804042B6
:101730000030014070B50546002410212F4800F00C
:1017400025FB2846FFF7D3FCFF20FFF7D0FC04431E
:101750002402FF20FFF7CBFC04432402FF20FFF705
:10176000C6FC04432402FF20FFF7C1FC0443102100
:10177000224800F009FB032000F068F8204670BD05
:1017800010B52DED048B10211C4800F0FFFA03204A
:10179000FFF7ADFC1021194800F0F6FA00BF184819
:1017A00000780028FBD0002015490870FFF7C2FE22
:1017B00014490880097801F00701AF31C8B2FFF77A
:1017C000B9FF04462046FFF7ABFC0F4880ED000A46
:1017D000006802F06FFE41EC190B53EC192B9FEDE2
:1017E0000B0B51EC100B02F00FFC41EC180B02F04C
:1017F000D9FB08490860BDEC048B10BD0000024015
:10180000841400208E140020941400200000000096
:1018100080849E409814002010B504466FF00400A8
:1018200000F092F9E11704EB5171C1F3C701394A95
:1018300011701046007800EB4001C1EBC0104FF66C
:10184000FF7101EAC0003449088010BD0146314AE9
:1018500012784A434FF0E0235A6100229A611A46F7
:10186000126942F001021A6100BF4FF0E0221069D4
:1018700000F001021AB100F48032002AF5D04FF0D6
:10188000E022126922F001024FF0E0231A610022E7
:101890009A6170470146204A12884A434FF0E0237C
:1018A0005A6100229A611A46126942F001021A61D5
:1018B00000BF4FF0E022106900F001021AB100F4FD
:1018C0008032002AF5D04FF0E022126922F00102A6
:1018D0004FF0E0231A6100229A61704770B5044608
:1018E0004FF4077094FBF0F0C6B24FF4077094FB0E
:1018F000F0F100FB114085B205E04FF40770FFF7EF
:10190000C9FF701EC6B2002EF7D115B12846FFF7E9
:10191000C1FF70BD9C1400209E14002000BF7047C2
:1019200000BF4C4A128802F04002002AF9D0C2B22D
:10193000484B9A80704710B588B0044601210220B8
:1019400000F044FC0121102000F09AFC072206213F
:10195000414800F028FA072211463F4800F023FAD8
:10196000C020069002208DF81C008DF81D0000207C
:101970008DF81E0001208DF81F0006A9364800F0E2
:1019800087F902940020ADF80C00ADF80E00ADF818
:101990001000ADF814000C20ADF8120002A92D487B
:1019A00000F0CFFD01212B4800F053FE012240F250
:1019B0002551284800F003FF25208DF8040003205E
:1019C0008DF805008DF8060001208DF8070001A8AC
:1019D00000F06DF808B010BD10B540F225511D485B
:1019E00000F028FF10B31B4800F062FEC4B21B4891
:1019F000008800F40040C8B91848008800F480400E
:101A000060B10A2C03D000201449088020E013485C
:101A1000008840F400401149088019E00D2C06D1DF
:101A20000E48008840F480400C49088010E00B48C4
:101A30000088C0F30D000A490C5408480088401C77
:101A40000649088008460088C72801DD0020088074
:101A500010BD00000010014000040240A41400204A
:101A6000381900200948804709480047FEE7FEE78B
:101A7000FEE7FEE7FEE7FEE7FEE7FEE7FEE7FEE73E
:101A800004480549054A064B70470000190600083E
:101A900089010008601A002060200020601C0020DE
:101AA000601C002032490143324A1160704770B512
:101AB000002100230F22C4781CB32E4C246804F4A8
:101AC000E064C4F5E064C4F30721C1F10404E3B2A7
:101AD0000A4144789C40E1B28478144021430C07C9
:101AE000210E254C05786155047804F01F0501246A
:101AF000AC4005786D11AD0005F1E025C5F8004159
:101B000009E0047804F01F050124AC401B4D067861
:101B1000761145F8264070BD194A0A400243154B1C
:101B20001B1F1A60704739B1124A121D1268024316
:101B3000104B1B1D1A6006E00E4A121D12688243EC
:101B40000C4B1B1D1A607047042808D14FF0E02190
:101B5000096941F004014FF0E022116107E04FF004
:101B6000E021096921F004014FF0E0221161704782
:101B70000000FA050CED00E000E400E080E100E088
:101B800080FFFF1F10B504469848844208D1012108
:101B9000084600F086FB0021012000F082FB76E081
:101BA0009348844208D10121022000F07AFB0021F1
:101BB000022000F076FB6AE08E48844208D10121C1
:101BC000042000F06EFB0021042000F06AFB5EE0C0
:101BD0008948844208D10121082000F062FB0021DD
:101BE000082000F05EFB52E08448844208D10121C5
:101BF000102000F056FB0021102000F052FB46E0C0
:101C00007F48844208D10121202000F04AFB0021B6
:101C1000202000F046FB3AE07A48844208D10121B6
:101C2000402000F03EFB0021402000F03AFB2EE077
:101C30007548844208D10121802000F032FB002148
:101C4000802000F02EFB22E07048844208D1012160
:101C5000801500F026FB0021A01500F022FB16E005
:101C60006B48844208D10121401500F01AFB002185
:101C7000601500F016FB0AE06648844207D1012196
:101C8000001500F00EFB0021201500F00AFB10BD2E
:101C9000F0B50A4600210023002400BF3DE00125E5
:101CA00005FA01F3156805EA03049C4234D105687E
:101CB0004F000326BE40B543056015794E00B54080
:101CC0000668354305601579012D02D01579022D7E
:101CD00016D185684F000326BE40B543856055790F
:101CE0004E00B540866835438560456801268E40C4
:101CF000B5434560456896798E40B6B23543456038
:101D0000C5684F000326BE40B543C560D5794E0077
:101D1000B540C6683543C560491C1029BFD3F0BD26
:101D20004FF6FF7101600021017141718171C17134
:101D3000704708B54FF480320092009A0A4300922F
:101D4000009AC261C161009AC261C2690092C2690F
:101D5000009208BD0246002013690B400BB1012020
:101D600000E0002070470146086980B270470246D3
:101D7000002053690B400BB1012000E000207047A8
:101D80000146486980B270470183704741837047BC
:101D90000AB1018300E041837047416170474269A5
:101DA0004A4042617047F0B5002300244D07ED0E14
:101DB00002FA05F3CE1000F1200555F826504E0723
:101DC000F70E0F26BE40B543CF1000F1200646F8AF
:101DD0002750CE1000F1200555F8265045EA03049F
:101DE000CE1000F1200545F82640F0BD000002406D
:101DF0000004024000080240000C024000100240B3
:101E00000014024000180240001C02400020024062
:101E10000024024000280240F948006840F0010018
:101E2000F74908600020F64908310860F448006866
:101E3000F4490840F2490860F348091D0860F34876
:101E4000EF4984310860F0481038091D0860EC48FB
:101E5000006820F48020EA4908600020E8490C313D
:101E60000860E7498C31086070470021E44A921C01
:101E7000117011460870704710B50146002200230A
:101E800000204A11012A02D1DD4C236808E0022A11
:101E900003D1DB4C7034236802E0D94C74342368DE
:101EA00001F01F02012494401C400CB1012000E00D
:101EB000002010BD38B5002000900024002500BF90
:101EC0003120FFF7D9FF05460098401C009000988C
:101ED000B0F5A04F01D0002DF2D03120FFF7CCFF9C
:101EE00008B1012400E00024204638BD014600204E
:101EF000C34A106820F0F80040EAC1001060704743
:101F0000C349086070470021BD4A703211701170DA
:101F1000012802D004280AD104E00121B84A703215
:101F2000117005E00521B64A7032117000E000BF63
:101F300000BF7047B7490860704770B5049C41EA1C
:101F400082150126C6EB530645EA0645054345EAD8
:101F50000465AB4E361D356070BDAD4908667047EF
:101F6000820142EA0172A64B84331A607047A84985
:101F70008866704710B5830143EA016343EA027340
:101F80009F4C8834236010BDA14908677047A04961
:101F9000C864704702460020994B0833186820F047
:101FA000EC6042EA01031843954B08331860704710
:101FB00002460020924B0833186820F0784042EA2D
:101FC000010318438E4B0833186070470146002008
:101FD0008B4A0832106820F00300084310607047F5
:101FE00087480830006800F00C0070470146002068
:101FF000834A0832106820F0F000084310607047F0
:10200000014600207E4A0832106820F4E050084360
:102010001060704701460020794A0832106820F4A9
:10202000604040EAC10010607047F0B50021002216
:102030000024022500260223714F08373F6807F06D
:102040000C0121B1042905D0082937D105E0724FD0
:10205000076036E0714F076033E0694F3F1D3F680E
:10206000C7F38056664F3F1D3F6807F03F036EB1D0
:102070006A4FB7FBF3F7DFF888C10CF1040CDCF80A
:1020800000C0CCF3881C07FB0CF40CE0624FB7FBDC
:10209000F3F7DFF86CC10CF1040CDCF800C0CCF3F2
:1020A000881C07FB0CF4564F3F1D3F68C7F30147E0
:1020B0007F1C7D00B4FBF5F7076002E0564F076018
:1020C00000BF00BF4E4F08373F6807F0F001090915
:1020D000534F7A5C0768D7404760494F08373F68DD
:1020E00007F4E051890A4E4F7A5C4768D740876011
:1020F000434F08373F6807F46041490B484F7A5C0B
:102100004768D740C760F0BD002100F44072B2F5C7
:10211000407F0AD13A4A0832116821F4F811414A45
:1021200002401143364A08321160354A7032126853
:10213000C0F30B031A43324B70331A6070473549B2
:102140004439086070473349403908607047364960
:102150000860704701460020294A8C32106820F040
:102160001F004A1E1043264A8C32106070470146F9
:102170000020234A8C32106820F4F8504A1E40EAAE
:1021800002201F4A8C3210607047014600201C4A12
:102190008C32106820F440100843106070470146EC
:1021A0000020174A8C32106820F440000843106069
:1021B000704701460020124A8C32106820F44030EB
:1021C00008431060704719490860704739B10C4ADC
:1021D0003032126802430A4B30331A6006E0084A74
:1021E000303212688243064B30331A607047F9B1BF
:1021F000034A343212680243014B34331A601CE044
:1022000000380240FFFFF6EA1030002400300020C2
:1022100000004742800E47420024F40000127A007A
:10222000A6140020FFFCFF0F5C014742E01147426B
:102230008F4A126882438E4B1A60704739B18C4ABC
:10224000121D126802438A4B1B1D1A6006E0884A61
:10225000121D12688243864B1B1D1A60704739B1EC
:10226000834A0C3212680243814B0C331A6006E039
:102270007F4A0C32126882437D4B0C331A607047E0
:1022800039B17B4A103212680243794B10331A601D
:1022900006E0774A103212688243754B10331A6099
:1022A000704739B1724A243A12680243704B243B9A
:1022B0001A6006E06E4A243A126882436C4B243B53
:1022C0001A60704739B16A4A203A12680243684B73
:1022D000203B1A6006E0664A203A12688243644B4B
:1022E000203B1A60704739B1614A1C3A12680243B8
:1022F0005F4B1C3B1A6006E05D4A1C3A1268824341
:102300005B4B1C3B1A60704739B1594A143A12684A
:102310000243574B143B1A6006E0554A143A1268C0
:102320008243534B143B1A60704739B1504A103AFC
:10233000126802434E4B103B1A6006E04C4A103ABA
:10234000126882434A4B103B1A60704739B1484AC1
:102350001C3212680243464B1C331A6006E0444AA2
:102360001C3212688243424B1C331A60704739B1E9
:102370003F4A2032126802433D4B20331A6006E088
:102380003B4A203212688243394B20331A6070472F
:1023900039B1374A243212680243354B24331A606C
:1023A00006E0334A243212688243314B24331A60E8
:1023B000704739B12E4A2C32126802432C4B2C3311
:1023C0001A6006E02A4A2C3212688243284B2C33CA
:1023D0001A60704739B1264A303212680243244BE2
:1023E00030331A6006E0224A303212688243204BB2
:1023F00030331A607047012808D11D493C31096803
:1024000041F008011A4A3C32116007E018493C319A
:10241000096821F00801164A3C321160704739B151
:10242000134A273A12780243114B273B1A7006E0F1
:102430000F4A273A127882430D4B273B1A70704798
:102440000B484030006840F0807009494031086016
:10245000704701460020064A283A12680A400AB12D
:10246000012000E0002070470149263908707047BC
:102470003438024010B50446FA48844208D101219C
:102480001020FFF752FF00211020FFF74EFF57E00A
:10249000F548844209D101214804FFF735FF0021A6
:1024A0004FF40030FFF730FF4AE0F048844209D192
:1024B00001218804FFF728FF00214FF48020FFF757
:1024C00023FF3DE0EA48844209D10121C804FFF717
:1024D0001BFF00214FF40020FFF716FF30E0E54816
:1024E000844209D101210805FFF70EFF00214FF4B6
:1024F0008010FFF709FF23E0DF48844208D1012163
:102500002020FFF712FF00212020FFF70EFF17E029
:10251000DA48844209D101218807FFF7F5FE00213E
:102520004FF08040FFF7F0FE0AE0D548844207D123
:1025300001214005FFF7E8FE00216005FFF7E4FEFA
:1025400010BD2DE9FF4705460E460024A14600BFF9
:10255000A046B08900B100BF2C8A24F44054F08812
:1025600004432C82AC8941F20C608443B0883189E9
:102570000843718908430443AC81AC8A24F4407455
:10258000B0890443AC826846FFF74FFDB5488542E9
:1025900002D0B948854202D1DDF80C9001E0DDF8A7
:1025A0000890A88900F4004040B109EBC90000EB95
:1025B000091031684900B0FBF1F707E009EBC900E9
:1025C00000EB091031688900B0FBF1F76420B7FB1C
:1025D000F0F004012009642101FB1078A88900F4BF
:1025E000004040B1322000EBC800B0FBF1F000F039
:1025F0000700044308E0322000EB08106421B0FB20
:10260000F1F000F00F0004432C81BDE8FF874FF488
:102610001651016000218180C18001810C2141811E
:1026200000218181704710B502460020108A20F4F5
:1026300070600B884C8823438C882343CC882343C9
:102640001843108210BD0021018041808180C1802B
:10265000704721B1828942F40052828104E082896C
:102660004DF6FF731A4082817047028B02F47F425D
:102670000283028B0A430283704721B1828942F4AC
:102680000042828103E08289C2F30E028281704798
:1026900021B1828A42F40062828204E0828A4FF28F
:1026A000FF731A4082827047C1F30802828070472C
:1026B00001468888C0F308007047028A4FF6F0731D
:1026C0001A400282028A0A430282704721B182893B
:1026D00042F00202828104E082894FF6FD731A40C3
:1026E0008281704782894FF2FF731A40828182890A
:1026F0000A4382817047028A4FF6DF731A400282D2
:10270000028A0A430282704721B1028A42F480425F
:10271000028204E0028A4BF6FF731A40028270477D
:10272000818941F001018181704721B1828A42F0A3
:102730000802828204E0828A4FF6F7731A4082828E
:102740007047028BD2B20283028B42EA01220283DB
:10275000704721B1828A42F02002828204E0828A9C
:102760004FF6DF731A408282704721B1828A42F0AD
:102770001002828204E0828A4FF6EF731A4082824E
:102780007047828A4FF6FB731A408282828A0A431C
:102790008282704721B1828A42F00202828204E082
:1027A000828A4FF6FD731A40828270471AB1838A7B
:1027B0000B43838202E0838A8B4383827047F0B5A8
:1027C0000346002400260025002040F66A17B9427F
:1027D00000D100BF1846C1F3421401F01F060127C3
:1027E00007FA06F5012C01D10C3004E0022C01D1CE
:1027F000103000E014301AB107682F43076002E080
:102800000768AF430760F0BD02460020B1F5007FC6
:1028100000D100BF13880B400BB1012000E0002065
:10282000704701F40072B2F5007F00D100BFCA43C7
:102830000280704770B50246002400230025002066
:1028400040F66A16B14200D100BFC1F3421501F053
:102850001F03012606FA03F3012D13D19689334095
:1028600017E0000000100140004400400048004014
:10287000004C00400050004000140140007800402F
:10288000007C0040022D02D1168A334001E0968A76
:1028900033400C12012606FA04F41688344013B1B2
:1028A0000CB1012000E0002070BD10B50022002313
:1028B00040F66A14A14200D100BF0A1201249440DC
:1028C000A3B2DC43048010BD10B501218803FFF7DB
:1028D0002CFD00214FF48040FFF727FD10BD1C495F
:1028E000086070471B490862704730B500228B07AB
:1028F0001C0F0F2303FA04F2154B08338C1053F806
:1029000024309343124C08348D1044F8253023466C
:102910008C1053F824308C07240F00FA04F423435E
:102920000B4C08348D1044F8253030BD0949DC319A
:10293000086070470849086070470020044920314A
:10294000096801F4807109B1012000E0002070479E
:1029500000380140000027420004274210B5044619
:10296000FB48844208D101218014FFF7DEFC0021DE
:10297000A014FFF7DAFC3CE0F648844208D10121BC
:102980000014FFF7C1FC00212014FFF7BDFC30E06C
:10299000F148844208D10121C013FFF7B5FC0021A2
:1029A000E013FFF7B1FC24E0EC48844208D1012198
:1029B0004014FFF7BAFC00216014FFF7B6FC18E0E2
:1029C000E748844209D101210805FFF7AEFC002148
:1029D0004FF48010FFF7A9FC0BE0E248844208D1D5
:1029E00001214805FFF7A1FC00214FF40010FFF77B
:1029F0009CFC10BD10B50022028802F441520B88E5
:102A00004C8823438C882343CC8823430C8923435D
:102A10004C8923438C892343CC8923431A43028066
:102A2000838B4FF2FF74234083830B8A038210BD94
:102A30002DE9F04F0025022300244FF00109002268
:102A40000026002794469046B0F81CA04FF2400B99
:102A50000AEA0B0AA0F81CA04FF0020AA0F820A076
:102A6000858BD1F808A0BAF1020F01D100BF82E036
:102A7000B1F804A0BAF1000F02D14FF0010901E052
:102A80004FF00209DFF8E0A2DAF800A00AF4000A29
:102A9000BAF1000F09D0DFF8D0A2DAF800A02AF4CA
:102AA000000ADFF8C4B2CBF800A0DFF8BCA20AF13C
:102AB0007C0ADAF800A0CAF3881CDFF8ACA20AF19D
:102AC0007C0ADAF800A0CAF30278DFF89CA2AAF127
:102AD000040ADAF800A00AF03F07DFF88CA2AAF196
:102AE000040ADAF800A00AF4800ABAF5800F08D1C7
:102AF000DFF878A2BAFBF7FA0AFB0CFABAFBF8F691
:102B000007E0DFF86CA2BAFBF7FA0AFB0CFABAFB93
:102B1000F8F6B1F806A0BAF5007F0ED14FEA162AF2
:102B20000AEB8A0A4FEA4A0AD1F808B0BAFBFBFA64
:102B30000AF1050A1FFA8AF20FE04FEA491AB6FBBA
:102B4000FAFA0AEB8A0A4FEA4A0AD1F808B0BAFB45
:102B5000FBFA0AF1050A1FFA8AF24FF00A0AB2FBE1
:102B6000FAF202F00104A2EB040ACAF34F034FF693
:102B7000FF7A0AEA0424022B01DBFF2B01DD02238A
:102B80000024B1F806A04AEA040A4AEA030AA0F8B7
:102B900020A0B1F804A0B1F80CB04AEA0B0AB1F8D1
:102BA00002B04AEA0B0AB1F800B04AEA0B0A4AF44A
:102BB000006A4AEA05058583BDE8F08F002101809F
:102BC00041808180C180018141818181C181072152
:102BD000018270470021018041808180C1800221F3
:102BE000816000218181704721B1028842F040025A
:102BF000028004E002884FF6BF731A4002807047DB
:102C000021B1828B42F48062828304E0828B4FF692
:102C1000FF331A408283704702884FF2FF731A40D5
:102C2000028002880A4302807047B1F5804F04D1C8
:102C3000028842F48042028004E002884BF6FF736F
:102C40001A40028070474FF6FF62914204D002881A
:102C500042F48072028004E002884FF6FF631A405B
:102C60000280704721B1828842F00402828004E031
:102C700082884FF6FB731A408280704721B18288A8
:102C800042F01002828004E082884FF6EF731A400F
:102C90008280704730B500220023848B4FF24005BC
:102CA0002C40848302240484828B0C88B4F5007F3A
:102CB00001D00C8814B94FF4807308E00C88B4F587
:102CC000407F03D00C88B4F5807F00D100238C882E
:102CD0008D892C434D882C431C4344F400642243CB
:102CE000828330BD0146888970478181704721B158
:102CF000028842F40052028004E002884DF6FF731D
:102D00001A4002807047018841F480510180704769
:102D100002460020012901D0108B00E0908A704704
:102D20000146088A70471AB183880B43838002E00A
:102D300083888B438380704730B5002400230C11B7
:102D40000125A540ABB2AAB185881D43858014E05A
:102D50000030014000380040003C00400034014099
:102D600000500140005401400838024000127A002F
:102D70000024F40085889D43858030BD02460020F4
:102D800013890B400BB1012000E000207047CA43BB
:102D900002817047F0B50246002000240023002580
:102DA00001F00F070126BE40B4B20B1101269E4070
:102DB000B3B2968806EA03051689264016B10DB10E
:102DC000012000E00020F0BD10B5002201F00F044A
:102DD0000123A3409AB2D343038110BD002041498F
:102DE0000860091D0860091D0860091D08603E484B
:102DF0003C4914310860704700213A498279002A21
:102E00003AD00A46126803689A430B461A600A1DB4
:102E1000126803689A430B1D1A60027911440A680C
:102E200003681A430A602F4A0832126803689A43FB
:102E30002C4B08331A601A1D126803689A43294BF9
:102E40000C331A604279102A0ED11A1F12680368D7
:102E50001A43244B08331A601A1D126803681A4378
:102E6000204B0C331A600DE01E49427911440A6868
:102E700003681A430A6005E0027911440A6803688E
:102E80009A430A6070470021016001710C21417171
:102E90000021817170471349103109680143114ABB
:102EA000103211607047014600200E4A1432126839
:102EB0000A400AB1012000E000207047094914319E
:102EC0000860704701460020064A143212680A4022
:102ED0000AB1012000E00020704702491431086067
:102EE00070470000003C0140FFFF7F00704700007A
:102EF0000FB4044910B503AA029800F0D1FA10BC2F
:102F00005DF814FBA01400200FB41CB5074B06AAF3
:102F10007B4469460090059800F0A9FA00206946B4
:102F200000F0B8FA1CBC5DF814FB0000810500003D
:102F30002DE9F0474FF0000A89460446C0F820A06A
:102F40002046E1688847002876D0252806D0D4E9B5
:102F500001219047206A401C2062F1E7E168204689
:102F600000258847C4F81CA006460027C4F818A00E
:102F70002A2E09D0304600F0F7FF38B304EB87085B
:102F8000303EC8F8186019E059F8041B204604EBDD
:102F900087029161E1688847012F064618D1E069F0
:102FA000002820DA25F020051DE0D8F8180000EBF5
:102FB000800006EB40003038C8F818002046E16871
:102FC0008847064600F0D0FF0028EED1012F0AD036
:102FD0002E2E08D12046E16888477F1C0646022F26
:102FE00045F02005C4DBA069002803DA404245F023
:102FF0000105A061E80701D025F01005B6B1A6F1E2
:103000004100192802D8203645F400654A46314669
:10301000204625604D46FDF711F958B1012806D02C
:10302000ED1D25F0070000F1080989E704E005F12E
:10303000040985E730468AE7206ABDE8F0877047D3
:1030400070477047704770472DE9FF4F0C461E468A
:103050004FF0FF378BB0D2E90001DDF860800A90B5
:103060008A46C1F30A5505B93D46002108464FF08E
:103070000000BAF1000F00F4400005DA00EB800018
:103080004FF4400101EA50004FEA9059B9F1010FA5
:1030900000DDB9460A9850EA4A000ED044F61050B6
:1030A000A5F2FF3545432F14B8F1000F1ED075422D
:1030B000291E1EDDC9F100021CE0B8F1010F4FF01E
:1030C000000001D0302103E0F24305E02154401C10
:1030D000B042FBDB30460022002121540B99C1F89D
:1030E0000880C1E900200FB0BDE8F08FBD1B6D1C4A
:1030F000DEE74A4600DA694206A800F06DFA06AB40
:1031000093E8070003AB83E8070050460A9900F0F4
:103110004BFB8DE80700A0F500501F380090039886
:10312000002D0ADD42F21F014A460844002303A98C
:103130000390684600F0B4FD09E0A0F500504A464F
:103140001F38002303A90390684600F0BEFD8DE8F8
:1031500007000004000C03D04FF0FF30410800E0EE
:103160001046B8F1000F03D00022009215461EE071
:10317000751E05D400F0AAF9303262556D1EF9D5DE
:10318000B3460122084302D000227F1C04E02078CD
:10319000302801D100227F1E002A099784D01DE02B
:1031A000112D07DA00F092F9303262556D1C50EAA9
:1031B0000102F5D1084302D00098C8B10EE0002109
:1031C000681E05E0235C625C63542254401E491C67
:1031D0008142F7DBAB46A81B401E0990002004F893
:1031E0000B000B98099AC0F80880C0E9002B7AE719
:1031F00011264FF0000857E72DE9F04F88460446A6
:10320000D21D22F0070191B0D1E90001CDE90A01F8
:1032100000F092FE02460B98C00F01D02D2007E06F
:103220002068810701D52B2002E0202101EAC0009F
:10323000032A099001D0072A05DB034641462046B0
:1032400000F08AF90BE12078800601D5E06900E002
:103250000620B8F1650F814606D0B8F1660F18D088
:10326000B8F1670F70D131E00020B9F1110F009073
:1032700001DB112301E009F101030AAA01A90CA84D
:10328000FFF7E2FEDDE90C70002609F10105834637
:1032900047E001204B4600904FF000470AAA01A9E1
:1032A0000CA8FFF7D1FEDDE90DB00C995D460026B4
:1032B00010B909F101000D18B9EB050003D4C0F1F4
:1032C000FF3609F10105A5EB09002BE0B9F1010F6B
:1032D00001DA4FF001090020B9F1110F00904846C2
:1032E00001DD112300E003460AAA01A90CA8FFF79B
:1032F000ABFEDDE90C704D460026834620780007C2
:103300000AD4AB4500DA5D4601A8012D04DD411960
:1033100011F8011C302907D04F4502DA17F1040FCC
:1033200004DA012082460FE06D1EEEE7002F02DC7A
:10333000ED1B3E4403E0781CA84200DD7D1CB81B59
:1033400000F1010A4FF000472078000703D4AA4596
:1033500001DB4FF0FF3A0021B7F1004F0DF14308B8
:103360008DF8431024D002202B23002F01DA7F4256
:103370002D230A21021EA0F1010000DC5FB197FBA2
:10338000F1FC97FBF1F201FB1C7C17460CF1300CB1
:1033900008F801CDEEE7A8F10100037021880905C6
:1033A00001D5452100E06521A0F1010800F8011CCC
:1033B00009980FA9A1EB0807FF1D00B101204119D1
:1033C00001EBEA70A1693844081A401EA061207818
:1033D000C00602D42046AFF30080099828B1D4E992
:1033E00001219047206A401C20622078C00622D527
:1033F0002046AFF300801EE0002E04DBB34502DD63
:1034000001A8805D00E03020D4E901219047206AC6
:10341000401C2062761CAAF101005FEA000A0AD172
:1034200000F050F8C0680168405CD4E90121904781
:10343000206A401C2062281EA5F10105DCDC07E0A3
:10344000D4E9012118F8010B9047206A401C206242
:10345000381EA7F10107F3DC2046AFF300800320FC
:1034600011B041E601694A1C02610878704700B555
:103470008FB0CDE901310021059105497944CDE9AD
:10348000031011466846FFF753FD0FB000BD000062
:10349000E5FFFFFF0A6802F8010B0A6070470000B1
:1034A000074B70B50D467B44FFF7E1FF0446284605
:1034B00000F004F910B14FF0FF3070BD204670BD30
:1034C00077E4FFFF00487047201A002030B5B0F1C4
:1034D0000A024FEA900E71F100034EEA817EB0EBD2
:1034E0000E0061EB91014FEA101E4EEA017E10EBD7
:1034F0000E0041EB11114FEA102E4EEA016E10EB57
:103500000E0041EB11214FEA104E4EEA014E10EB36
:103510000E0041EB1141401841F100014FEAD0008B
:1035200040EA41704FEAD10110EB80054FEA810477
:1035300044EA907444EB01046D1944EB0404521BFB
:10354000A3414FF0000348BF0A3200D530BD401CF4
:1035500041F1000130BD00002DE9F0411F46044655
:1035600003260168072A01F4006004DB08B116A5F0
:1035700005E016A503E008B115A500E015A521F0AA
:1035800010002060A069C01EA0610FB1401EA061A4
:103590002046AFF300804FB1D4E90121384690476F
:1035A000206A401C2062C01C206206E0206AFAE704
:1035B000D4E9012115F8010B9047761EF8D2204678
:1035C000AFF30080BDE8F0814E414E006E616E00A9
:1035D000494E4600696E66002DE9F0478146164661
:1035E0008AB0354878440DC88DE80D0032487844DB
:1035F000801C03AC0DC884E80D0041F69B300844E4
:10360000372190FBF1F290FBF1F5A5F1800501FB6C
:1036100012041B3C02D56442012000E00020DFF8C8
:1036200098A080460027FA44AAF1BE0A0EE0E007FF
:103630000AD03246684607EB470101230AEB8101B5
:1036400000F043FB8DE8070064107F1C002CEED1D6
:10365000194F7F44AE3F19E0E80715D007EB04107F
:103660000DF1180A90E80E008AE80E00C068F042DA
:1036700001D1981908903246012306A903A800F049
:1036800024FB03AB83E807006D10641C002DE3D11D
:103690004FF0010332466946B8F1000F03A802D08B
:1036A00000F0FEFA01E000F010FBC9E90001C9F8E2
:1036B00008200AB0BDE8F08704280000007B00F075
:1036C0008000704700487047001A00207546FFF7D9
:1036D000F9FFAE4605006946534620F007008546CF
:1036E00018B020B5FEF7CCF9BDE820404FF0000639
:1036F0004FF000074FF000084FF0000B21F00701DA
:10370000AC46ACE8C009ACE8C009ACE8C009ACE81C
:10371000C0098D46704710B50446AFF300802046BF
:10372000BDE81040FCF7A6BD4FF0013C50F8042B5B
:1037300051F8043B9A4221D1A2EB0C03934313EAC4
:10374000CC1317D150F8042B51F8043B9A4215D1F1
:10375000A2EB0C03934313EACC130BD150F8042BC8
:1037600051F8043B9A4209D1A2EB0C03934313EAAC
:10377000CC13DBD04FF00000704700BFD01A01BA65
:10378000B1FA81F101F0180122FA01F0CB40C1F148
:103790002001DBB2C0B2C01A2CFA01F3D11A914356
:1037A00011EAC311E6D170475FEA400C08BF91F0FF
:1037B000000F4FEA8C234FEAC12243EA51514FEAEE
:1037C0001C5018BF00F5F0404FEA300018BF41F020
:1037D00000415FEA6C5C00F02980BCF1FF3F08BF4C
:1037E00040F080407047130C06BF12044FF0100CDD
:1037F0004FF0000C130E04BF12020CF1080C130F53
:1038000004BF12010CF1040C930F04BF92000CF1E1
:10381000020CD30F04BF52000CF1010C11464FF003
:103820000002A0F11F00A0EB0C00704711F0004F48
:1038300008BF704731F000413FF4D5AF0B0C06BF15
:1038400009044FF0100C4FF0000C0B0E04BF0902DE
:103850000CF1080C0B0F04BF09010CF1040C8B0FC9
:1038600004BF89000CF1020CCB0F04BF49000CF11E
:10387000010CCCF12003A0EB0C0022FA03F302FAB6
:103880000CF241EA030100F10100704720F07F4C87
:1038900080EA030023F07F47ACEB070303F57C537A
:1038A00000F0004003F1FF032DE980494FEA154B7A
:1038B00009B44FEA144325EA0B4E24EA03480FF2F9
:1038C000042606EB132749083E785FEA320203FB21
:1038D0000667C7F5000707FB06F64FEA54374FEABD
:1038E000D64606F1020607FB066CCCF1005C4FEAF7
:1038F0001C472CEA074C07FB06F40CFB06F504EB0F
:1039000015464FEA961634BF00204FF000404FEAAC
:10391000D13706FB07FC4FEA1C4C0CFB0BF7D21B04
:1039200003FB0CF761EB07010CFB0EF7B0EB074054
:1039300072EB17420CFB08F734BFA2EB0742B2EB65
:10394000074261EB17414FEA0C444FEA910706FB2F
:1039500007FC4FEA1C4C0CFB0BF7B0EBC74072EBBB
:10396000573203FB0CF734BFA2EBC742B2EBC7429E
:1039700061EB57310CFB0EF7B0EBC70072EB5772DF
:103980000CFB08F734BFA2EBC702B2EBC70261EB36
:103990005771039F4FEA816141EA921104EBCC0415
:1039A0004FEAD1374FEA826206FB07FC42EA9012E7
:1039B0004FEA80604FEA1C4C0CFB0BF7D21B03FB59
:1039C0000CF761EB07010CFB0EF7B0EB074072EB55
:1039D00017420CFB08F734BFA2EB0742B2EB0742D9
:1039E00061EB17414FEA8C554FEA910704EB9C2499
:1039F00006FB07FC4FEA1C4C0CFB0BF7B0EBC74077
:103A000072EB573203FB0CF734BFA2EBC742B2EBA9
:103A1000C74261EB57310CFB0EF7B0EBC70072EBFE
:103A200057720CFB08F734BFA2EBC702B2EBC70218
:103A300061EB577115EB4C254FEA816141EA921118
:103A40004FEA82624FEAD13742EA901206FB07FC46
:103A500044F100044FEA80604FEA1C4C0CFB0BF76A
:103A6000D21B03FB0CF761EB07010CFB0EF7B0EB6D
:103A7000074072EB17420CFB08F734BFA2EB07427A
:103A8000B2EB074261EB174115EB1C154FEA813190
:103A900041EA92414FEA823242EA90424FEA803054
:103AA0004FEA0C7644F1000448EA03434EEA0B481F
:103AB0004FF0000EB2EB080C71EB030724BF624617
:103AC00039464EEB0E0E4FF0000B001852414941A3
:103AD0004BEB0B0BB2EB080C71EB03077BF1000B0C
:103AE00024BF624639464EEB0E0E4FF0000B001815
:103AF000524149414BEB0B0BB2EB080C71EB030746
:103B00007BF1000B24BF624639464EEB0E0E51EAA4
:103B1000020718BF46F0010616EB0E7655F10002BB
:103B200054F1000103D5BDE88901BDE80088BDE876
:103B30008901BDE80048B619524141EB0101A3F1EA
:103B40000103704780807F7E7D7C7B7A79787776F1
:103B500076757473727171706F6E6E6D6C6C6B6A6A
:103B60006A69686867666665646463636261616008
:103B7000605F5F5E5E5D5D5C5C5B5B5A5A59595885
:103B800058575756565555555454535352525251EF
:103B9000515050504F4F4F4E4E4D4D4D4C4C4C4B45
:103BA0004B4B4A4A4A49494948484847474747468C
:103BB00046464545454444444443434343424242C8
:103BC00042414141002B9C4630D477002BD01CB59C
:103BD0004FEA370703B44FF010004FF01001BAF16D
:103BE000000F06D0BCF1000FDCBF40F0080040F031
:103BF00008014FF000000FBCBDE810400BF1010BB5
:103C0000BBF1010F08BF5FEA170722BF12F10102E3
:103C100011F101014FF0004143F1000300F00040B9
:103C200043EA00007047F9D35708D0E746EA064652
:103C300013F1400F4FEA16461FDD13F1200FDFBFCF
:103C400016430A46002120335B42BED0C3F1200751
:103C500046EA064602FA07F74FEA164646EA07061C
:103C6000C3F1200722FA03F201FA07F721FA03F160
:103C70004FF0000342EA0702A7E746EA020646EAD7
:103C800006464FEA164646EA0106BCBF46EA064625
:103C9000360C4FF000034FF000024FF0000194E7A4
:103CA0002DE9804C9A46934670B491E8380007C8D5
:103CB00031EA400C48BF34EA430C03D5FFF7E6FD78
:103CC000FFF780FFF0BCBDE8008C2DE9804C9A46E0
:103CD000934670B491E8380007C810F0804F08BFD1
:103CE00013F0804F03D100F005F8FFF76BFFF0BC35
:103CF000BDE8008C20F07F4780EA030023F07F4C72
:103D000007EB0C03A3F57C5300F00040A3F1FE0386
:103D100092F0000F00F0B38095F0000F00F0778074
:103D20002DE901494FEA11404FEA144621EA0048C3
:103D300000FB06FC24EA064708FB06F607FB08F82A
:103D400000FB07F718EB06484CEB164C4FEA124BFA
:103D500018EB07484FEA15464CEB174022EA0B4E8A
:103D60000BFB06FC25EA06470EFB06F607FB0EFEDC
:103D70000BFB07F71EEB064E4CEB164C4FF0000604
:103D80001EEB074E4CEB174B18EB0B0840F10000F5
:103D900018EB0E0B58EB000840F100008F1A4FF0A3
:103DA00000013CBFC943661B14BFB5EB040C0021E6
:103DB0003CBFC943F61B4FEA17444EEA8E0E27EA72
:103DC00004454FEA1C4704FB07622CEA074C05FB3D
:103DD00007F70CFB05F604FB0CFC16EB074642EB61
:103DE000174216EB0C4642EB1C421BEB060658EB47
:103DF0000202414146EA9E0601D5BDE80189B61995
:103E0000524141EB0101A3F10103BDE801894FEAF1
:103E100014454FEA114724EA054621EA074C05FB01
:103E200007F406FB07F70CFB06F105FB0CFC11EB96
:103E3000074144EB17444FEA124711EB0C4144EBA6
:103E40001C4422EA074C05FB07F206FB07F70CFBB4
:103E500006F605FB0CFC16EB074642EB174216EB89
:103E60000C4642EB1C456A1854F1000148BF7047EC
:103E7000B619524141EB0101A3F10103704795F0DE
:103E8000000F37D04FEA11424FEA144721EA0246A9
:103E900024EA074C02FB07F106FB07F70CFB06F4CC
:103EA00002FB0CFC14EB074441EB17414FEA1547AA
:103EB00014EB0C4441EB1C4125EA074C02FB07F5CF
:103EC00006FB07F70CFB06F602FB0CFC16EB07469D
:103ED00045EB174516EB0C4645EB1C42121951F108
:103EE000000148BF7047B619524141EB0101A3F1EF
:103EF000010370474FEA14454FEA114724EA05468B
:103F000021EA074C05FB07F106FB07F70CFB06F25D
:103F10004FF0000605FB0CFC12EB074241EB17418A
:103F200012EB0C4251EB1C4148BF7047921841EB19
:103F30000101A3F10103704703B401984100009807
:103F400050EAC12018BF04204A0D18BF40F00100FC
:103F500040F2FF72B2EB515F08BF40F0020001284F
:103F600008BF052002B0704730380A2801D201206E
:103F7000704700207047000010B500290AD008786B
:103F8000002807D005487844FFF7CEFB002801D071
:103F9000002010BD0248784410BD00009E1E0000A5
:103FA000961E000021F00042A2F16052B2F5801F7F
:103FB00001F0004328BFD2F17F6C0BD95FEA001CEF
:103FC00043EAC20242EB507018BF704728BF20F08E
:103FD00001007047B2F5801FBCBF184670474FEA1A
:103FE000410C1CF5001F02D2084600F0D9BA70B58A
:103FF00000F00CFA00000089FFF7F6BF4FF0004018
:10400000A0F58000704700002DE9C04130B4DFF812
:10401000A0C23CEA111418BF3CEA131400F0EC8073
:1040200081EA03051CEA111444EAD57418BF1CEA9E
:10403000131500F0C780A4EB05044FF0004545EAD6
:10404000C12145EAC32341EA505143EA525304F1E6
:104050007F74994204F500344FEAC0204FEAC2222F
:1040600008BF904200F09C804FEA13650FF24016A3
:10407000765D4FEA134506FB05F7C7F1807706FB2F
:1040800007F74FEAD737A7FB03687642C8F58038B1
:10409000A7FB06CE38BFA8F1010807FB08E64FF0E2
:1040A000000EA6FB028CE6FB03CEDCF1000CCEF189
:1040B000004E38BFAEF1010EA6FB0C584FF00007C2
:1040C0004FF00005E6FB0E87A1FB08C6A0FB07CE5C
:1040D00016EB0E0645F10005E1FB076515F1E04E14
:1040E0007EBFA4F580345FEA46066D4116F1800775
:1040F00045F100054FEA17274FEA066647EA0567CC
:10410000A6F1DE46B6F1805F4FEA15251FD9384685
:1041100024F0010C05EBC471BCF1FE6F01EB0C1136
:1041200002D8F0BCBDE8008124425CBF01F5801ECE
:104130009EEAC47F02D4F0BCBDE80081244238D49A
:10414000F0BCA1F1C041BDE8004100F0ADB94FEABB
:10415000D22242EA43524FEAD323A7FB02864FEA18
:10416000D02040EA415007FB03661EEA0E0F4FEADB
:10417000D12105FB026658BFA6EB0056B6EB0056F0
:104180004FEA520E4EEAC37E18EB0E0E56EB530E5C
:10419000BDD518EB02085E417F1C55F10005B6E75E
:1041A0004FF480154FF000074FF000064FF0000865
:1041B000ADE7F0BC4FF0000001F1C04101F000415B
:1041C000BDE8008111EA0C1F0CEA131500D00CE0C9
:1041D00013EA0C1F00F025804FF00000F0BC81EACC
:1041E000030101F00041BDE80081F0BCBDE80041E1
:1041F00081EA030100F058B9F0BCBDE8004170B598
:1042000000F004F9097EFC3E00F007B881EA0301E2
:104210004FF0000001F00041704781EA030100F017
:1042200043B9F0BCBDE800414FF0000021497047A0
:10423000FFFDFBF9F7F5F4F2F0EEEDEBE9E8E6E46B
:10424000E3E1E0DEDDDBDAD8D7D5D4D3D1D0CFCDF2
:10425000CCCBCAC8C7C6C5C4C2C1C0BFBEBDBCBB2B
:10426000BAB9B8B7B6B5B4B3B2B1B0AFAEADACAB26
:10427000AAA9A8A8A7A6A5A4A3A3A2A1A09F9F9E00
:104280009D9C9C9B9A9999989797969595949393B2
:10429000929191908F8F8E8E8D8C8C8B8B8A898949
:1042A00088888787868585848483838282818180CC
:1042B0000000FF070000F87FDFF848C170B51CEA76
:1042C000111E1EBF1CEA13159EEA0C0F95EA0C0F77
:1042D00000F06F8081EA030423EA4C134EEAD47E97
:1042E00021EA4C1141F4801143F48013AE44A1FB48
:1042F000024CA0FB0365AEF17F7E361955EB0C0531
:10430000A1FB034C4CF10003A0FB021C16EB0C06B6
:10431000654153F10003094218BF46F0010613F44A
:10432000007F0BD14FEA03314FEA0530340341EAF5
:10433000155140EA16506FF003020AE04FEAC3211C
:104340004FEAC520F40241EA555140EA56506FF059
:10435000020202EB2E4201EB025585EACE710AD031
:104360005FEA440C18BF24F0004450F1000041F112
:10437000000120EAD47040F2FE7C624500D270BD9C
:10438000A84214BF4FF080444FF04044002E08BFB5
:104390000024BEF1806FA8BFA1F1C041BDE870400C
:1043A00080F282804FF0000001F1C04101F0004135
:1043B00070479EEA0C0F0CEA131518BF95EA0C0F14
:1043C00006D04FF0000081EA030E0EF0004170BDF0
:1043D00000F01CF88900013E00F007B800F009B8B1
:1043E0004FEA430C5FEA5C5C08D081EA030100F00D
:1043F0005BB84FEA410C5FEA5C5CF6D14FF000001D
:10440000014970470000FF070000F87F0EF1020E1F
:104410002EF0030E5EF8046B364205D4012A43EBFE
:10442000030515F5001F12D8012841EB010C1CF5FE
:10443000001F0CD80ED14FEAD17C15F5001F0CEBF4
:104440004C0C0CF1020C08BF4CEBD37C04E04FF099
:10445000080C01E04FEAD37C0CEB4C0526FA05F67C
:1044600006F00706B6F1040C06D20EEB860CBDE88A
:1044700070404CF0010C6047DFE80CF0090B0202C1
:104480004FF000414FF00000A1F5002170BD19462A
:104490001046012851EB010418BFD4F5001484BF65
:1044A000002001F0004170BD0808A0F500114FEA9E
:1044B0003101704743004FEAD30C4FEA3C0C4340B4
:1044C0001FBF40070CF1605113F0FE4F70471CF006
:1044D000006F03D100200CF0004170470CF0004346
:1044E00043EA507010B540EACC0000F00EF800BF6F
:1044F000000000924FEA0001FFF7D6BF4FF00041E5
:104500004FF00000A1F5002170470EF1020E2EF0D1
:10451000030E5EF8044B244204D44FEA4102B2F188
:104520007F4F11D84FEA4003B3F17F4F0CD80ED123
:104530004FEAD07CB2F17F4F0CEB4C0C0CF1020C2B
:1045400008BF4CEBD17C04E04FF0080C01E04FEACF
:10455000D17C0CEB4C0324FA03F404F00704B4F10F
:10456000040C06D20EEB840CBDE810404CF0010C9C
:104570006047DFE80CF0070802024FF00040A0F5AA
:10458000800010BD0846420018BFD2F1807288BF7B
:1045900000F0004010BD4FF04070E1EE100A70478F
:1045A000FF2141EAD050C0057047FEF725BE00004C
:1045B00000000000000000000000000000003F407C
:1045C000000000000000000030004000300040000B
:1045D000000009000BC03D000BC03D00090018C0E1
:1045E00024407FE0224031800000180024C01B00DE
:1045F0000D803240018003801C4027401C80074012
:1046000000401000600000000000000000000000FA
:10461000000000001F80204040200000402020407B
:104620001F8000000000090006001F80060009002E
:104630000000040004003F8004000400000000109B
:1046400000600000000000000000040004000400FE
:104650000400040000000000004000000000000012
:104660000000002001C006003800400000001F804C
:104670002040204020401F800000000010403FC02C
:1046800000400000000018C0214022402440184093
:10469000000010802040244024401B8000000200C5
:1046A0000D0011003FC0014000003C802440244028
:1046B0002440238000001F80244024403440038095
:1046C00000003000200027C03800200000001B80C0
:1046D0002440244024401B8000001C0022C02240B3
:1046E00022401F8000000000000008400000000081
:1046F0000000000000000460000000000000000056
:1047000004000A001100208040400900090009004F
:1047100009000900000000004040208011000A004C
:1047200004001800200023402400180000001F800F
:104730002040274029401F400000004007C03900AA
:104740000F0001C0004020403FC0244024401B8097
:1047500000001F802040204020403080000020408A
:104760003FC0204020401F80000020403FC0244028
:104770002E4030C0000020403FC024402E003000BA
:1047800000000F00108020402240338002002040B3
:104790003FC0040004003FC02040204020403FC0F4
:1047A0002040204000000060202020203FC020004A
:1047B000200020403FC024400B0030C0204020405B
:1047C0003FC020400040004000C03FC03C0003C04C
:1047D0003C003FC0000020403FC00C4023003FC0D1
:1047E00020001F802040204020401F8000002040EB
:1047F0003FC024402400180000001F8021402140B9
:1048000020E01FA0000020403FC02440260019C027
:10481000004018C024402440224031800000300075
:1048200020403FC020403000000020003F8000407A
:1048300000403F80200020003E0001C007003800FB
:104840002000380007C03C0007C0380000002040AE
:1048500039C0060039C0204000002000384007C0A1
:10486000384020000000304021C02640384020C0A1
:104870000000000000007FE0402040200000000019
:1048800070000C0003800040000000004020402029
:104890007FE0000000000000200040002000000039
:1048A00000000010001000100010001000100000A8
:1048B00000004000000000000000000002800540F1
:1048C000054003C0004020003FC004400440038076
:1048D0000000000003800440044006400000000087
:1048E0000380044024403FC0004000000380054096
:1048F000054003400000000004401FC02440244045
:104900002000000002E00550055006500420204021
:104910003FC00440040003C000400000044027C022
:1049200000400000000000100010041027E000000C
:10493000000020403FC00140070004C00440204068
:1049400020403FC000400040000007C0040007C0F6
:10495000040003C00000044007C00440040003C07A
:104960000040000003800440044003800000041065
:1049700007F004500440038000000000038004405E
:10498000045007F00010044007C002400400040077
:104990000000000006400540054004C00000000083
:1049A00004001F8004400040000004000780004015
:1049B000044007C000400400070004C00180060056
:1049C0000400060001C0070001C00600000004400A
:1049D00006C0010006C0044000000410071004E0F7
:1049E0000180060004000000044005C006400440A9
:1049F00000000000000004007BE0402000000000F8
:104A000000000000FFF000000000000040207BE0FC
:104A10000400000000004000800040002000200052
:104A20004000000000000000000000000000000046
:104A300000000000000000001FCC000C000000007F
:104A40000000000008003000600008003000600036
:104A50000000022003FC1E20022003FC1E20022076
:104A6000000000000E1811043FFF10840C780000B5
:104A700000000F0010840F3800C0077818840078F9
:104A8000000000780F8410C411240E9800E4008404
:104A9000000808006800700000000000000000002E
:104AA000000000000000000007E018182004400289
:104AB0000000000040022004181807E00000000079
:104AC00000000240024001800FF0018002400240DD
:104AD00000000080008000800FF8008000800080CF
:104AE00000000001000D000E0000000000000000AA
:104AF00000000000008000800080008000800080B6
:104B000000800000000C000C00000000000000000D
:104B10000000000000060018006001800600180078
:104B20002000000007F0080810041004080807F02F
:104B300000000000080408041FFC0004000400003A
:104B4000000000000E0C10141024104411840E0CF0
:104B5000000000000C1810041104110412880C70DD
:104B60000000000000E00320042408241FFC0024AF
:104B7000000000001F9810841104110410881070A8
:104B80000000000007F00888110411041888007064
:104B9000000000001C00100010FC13001C0010009E
:104BA000000000000E3811441084108411440E38A7
:104BB000000000000700088C10441044088807F02B
:104BC0000000000000000000030C030C00000000C7
:104BD00000000000000000010106000000000000CD
:104BE00000000000008001400220041008081004AA
:104BF00000000220022002200220022002200220C7
:104C00000000000010040808041002200140008089
:104C1000000000000E001200100C106C10800F003D
:104C2000000003E00C1813E4142417C4082807D06C
:104C300000000004003C03C41C40074000E4001CCA
:104C4000000410041FFC1104110411040E880070EC
:104C5000000003E00C1810041004100410081C10CD
:104C6000000010041FFC100410041004080807F0D2
:104C7000000010041FFC1104110417C410040818CC
:104C8000000010041FFC1104110017C010000800E0
:104C9000000003E00C181004100410441C780040BD
:104CA000000010041FFC10840080008010841FFC92
:104CB00010040000100410041FFC10041004000075
:104CC000000000030001100110011FFE1000100081
:104CD000000010041FFC110403801464181C10044D
:104CE000000010041FFC1004000400040004000C69
:104CF000000010041FFC1F0000FC1F001FFC10041C
:104D0000000010041FFC0C04030000E010181FFC3E
:104D1000100007F00808100410041004080807F039
:104D2000000010041FFC10841080108010800F0001
:104D3000000007F0081810241024101C080A07F2BD
:104D4000000010041FFC1104110011C011300E0CE2
:104D5000000400000E1C11041084108410441C3840
:104D600000001800100010041FFC100410001800B0
:104D7000000010001FF810040004000410041FF8C5
:104D8000100010001E0011E0001C007013801C00B9
:104D900010001FC0103C00E01F0000E0103C1FC0CE
:104DA00000001004180C163401C001C01634180C91
:104DB000100410001C00130400FC13041C0010005D
:104DC00000000804101C1064108413041C04101844
:104DD00000000000000000007FFE40024002400290
:104DE0000000000030000C0003800060001C000385
:104DF000000000004002400240027FFE0000000070
:104E000000000000000020004000400040002000A2
:104E1000000000010001000100010001000100018B
:104E200000010000400040002000000000000000E1
:104E3000000000000098012401440144014400FCEA
:104E4000000410001FFC00880104010400880070A9
:104E500000000000007000880104010401040088C3
:104E600000000000007000880104010411081FFC0C
:104E70000004000000F8014401440144014400C85A
:104E800000000000010401040FFC110411041100D2
:104E90001800000000D601290129012901C90106D5
:104EA000000010041FFC008401000100010400FC4C
:104EB000000400000104190419FC000400040000AF
:104EC00000000000000300010101190119FE0000AB
:104ED000000010041FFC0024004001B4010C010478
:104EE00000000000100410041FFC00040004000077
:104EF0000000010401FC0104010001FC01040100A7
:104F000000FC010401FC008401000100010400FC1C
:104F10000004000000F8010401040104010400F889
:104F20000000010101FF00850104010400880070F8
:104F3000000000000070008801040104010501FF69
:104F400000010104010401FC00840104010001804E
:104F50000000000000CC0124012401240124019858
:104F6000000000000100010007F801040104000036
:104F70000000010001F8000400040004010801FC25
:104F80000004010001800170000C0010016001802C
:104F9000010001F0010C003001C00030010C01F0F3
:104FA000010000000104018C00740170018C0104F7
:104FB0000000010101810171000E001801600180F3
:104FC000010000000184010C013401440184010C42
:104FD0000000000000000000000001003EFC400254
:104FE00040020000000000000000FFFF0000000081
:104FF00000000000400240023EFC010000000000F2
:1050000000000000600080008000400040002000A0
:105010002000000000000000000000000000000070
:105020000000000000000000000000000000000080
:105030000000000000000000000000000000000070
:1050400000000000000F80380FFE380F803800008D
:105050000000000000000000000000000000000050
:105060000100000600000C000038000031000006BE
:1050700000000C00003800003000000000000000BC
:10508000000061800067F807F9800061800061809E
:105090000061800061800067F807F980006180008E
:1050A000000000000000000001C0E003E0F0063056
:1050B000080418081FFFFE040E080787F00381E0AC
:1050C00000000000000001F000060C0004040806C7
:1050D0000C7001F9C0000E00003BE000EC1807085E
:1050E00008040C180003E00000000001E00007F0D5
:1050F00003F818041C0804170807E1D003C0E000F7
:1051000023B0003C08002008000010000000000050
:10511000000100003100003200001C00000000000F
:10512000000000000000000000000000000000007F
:10513000000000000000000000000000000000006F
:1051400000007F0001FFC00780F00C001810000471
:105150002000020000000000002000021000040CEB
:1051600000180780F001FFC0007F00000000000071
:1051700000000000000000000000000000004200ED
:10518000006600006600003C0000180003FFC0003D
:105190001800003C000066000066000042000000AD
:1051A00000000800000800000800000800000800D7
:1051B00001FFC0000800000800000800000800000F
:1051C0000800000000000001000031000032000073
:1051D0001C000000000000000000000000000000B3
:1051E00000000000000000000000080000080000AF
:1051F000080000080000080000080000080000087F
:10520000000008000008000000000000000000008E
:1052100000003800003800003800000000000000E6
:10522000000000000000000000000000000000007E
:105230000000000600001C000070000180000E004D
:1052400000380000C0000700001C00003000000013
:105250000000000000007F8001FFE0038070060076
:105260001804000804000806001803807001FFE01D
:10527000007F800000000000000000000100080125
:10528000000801000803FFF807FFF800000800000D
:105290000800000800000000000000000001C03805
:1052A00002C05804009804011804021804041806E7
:1052B0001C1803F81801E0F80000000000000000CE
:1052C0000001C0E003C0F004000804080804080856
:1052D00006180803F41801E7F00001E000000000E0
:1052E0000000000000000300000D0000110000613C
:1052F0000000810803010807FFF80FFFF80001080C
:105300000001080000000000000000E007FCD006DB
:105310000808061008061008061008061838060FB8
:10532000F00607C0000000000000000000003F8001
:1053300001FFE00384300208180410080410080478
:105340001008071810030FF00007C000000000004D
:105350000000000003C0000700000600000600F87F
:105360000607F806180006E0000700000600000027
:10537000000000000001E1E003F7F006341004181B
:1053800008041808040C08040C0806161803F3F0A7
:1053900001C1E000000000000000F80003FC300341
:1053A0000638040208040208040208040410030872
:1053B000F001FFC0007F00000000000000000000BE
:1053C000000000000000000000007038007038008D
:1053D0007038000000000000000000000000000025
:1053E0000000000000000000000000000000301A73
:1053F00000301C0000000000000000000000000061
:10540000000000000000000000080000140000225E
:1054100000004100008080010040020020040010D4
:10542000080008000000000000002100002100002A
:1054300021000021000021000021000021000021A6
:10544000000021000021000000000000000000001A
:1054500008000804001002002001004000808000C5
:1054600041000022000014000008000000000000BD
:105470000003C00004C000040000080038080F3812
:105480000808380810000C300007E00003C00000D6
:105490000000000000003F8000FFE0038070020F6A
:1054A0001006708804C088048308047F8802C090B6
:1054B00003012000FE400000080000180001F80071
:1054C0003E0801C20007020007E20000FE00001FC4
:1054D000C80001F800003800000804000807FFF8C1
:1054E00007FFF80408080408080408080408080668
:1054F000180803F41801E7F00001E00000000000C4
:1055000000003F8001FFE0038070020018040008E3
:105510000400080400080400100600200780C000F2
:10552000000004000807FFF807FFF8040008040063
:105530000804000804001802001003807001FFE056
:10554000007F8000000004000807FFF807FFF80450
:105550000808040808040808040808043E080400B1
:105560000806001801006000000004000807FFF8AA
:1055700007FFF804080804080004080004080004F1
:105580003E00060000060000018000000000000050
:1055900000003F8001FFE00380700600180400084F
:1055A0000402080402080203F00783F0000200006E
:1055B000020004000807FFF807FFF80408080008C5
:1055C0000000080000080000080004080807FFF8B1
:1055D00007FFF804000800000000000004000804B1
:1055E000000804000807FFF807FFF804000804009B
:1055F0000804000800000000000000000000000691
:10560000000007000001040001040001040003077A
:10561000FFFE07FFFC04000004000004000004007B
:105620000807FFF807FFF8040C08001800003E0008
:1056300004C7800503C80600F804003804001800F9
:10564000000804000807FFF807FFF804000800003E
:10565000080000080000080000080000080000180A
:1056600000006000000004000807FFF8078008073A
:10567000FC00007FC00003F80007C000780007802E
:105680000807FFF807FFF804000804000807FFF800
:1056900007000803C00000E000003800001E000002
:1056A00007000001C00400F007FFF804000000003C
:1056B00000007F8001FFE0038070060018040008EE
:1056C00004000806001803003001FFE0007F80009E
:1056D000000004000807FFF807FFF80404080404AA
:1056E00000040400040400040400060C0003F80095
:1056F00001F000000000000000007F8001FFE003D7
:1057000080700600880400880400C806003C03007E
:105710003E01FFE6007F8400000004000807FFF858
:1057200007FFF8040808040800040C00040F000434
:105730000BC00610F003F03801E00800000800007C
:105740000001E0F803F030063010041808041808CF
:10575000040C08040C080206180207F00781E00098
:1057600000000180000600000400000400000400A6
:105770000807FFF807FFF804000804000004000011
:1057800006000001800004000007FFE007FFF004AE
:1057900000180000080000080000080000080000D1
:1057A0000804001007FFE0040000040000060000E9
:1057B00007E00007FE00041FE00001F800003800C9
:1057C00001E0043E0007C0000600000400000400E1
:1057D0000007E00007FFC0041FF80007C007F8003B
:1057E00007FF80043FF80007C004F800070000042A
:1057F000000000000004000806001807C07805F14A
:10580000C8003E00001F800463E80780F806001807
:1058100004000800000004000006000007800007E4
:10582000E008047C08001FF80007F800180804E0EE
:105830000807000006000004000000000001000846
:105840000600380400F80403E8040F08047C080587
:10585000F00807C0080700180400600000000000FE
:10586000000000000000000000000000003FFFFEFC
:10587000200002200002200002200002200002007E
:10588000000000000000000008000007000000C049
:10589000000038000006000001C000003000000ECB
:1058A00000000100000000000000000020000220B5
:1058B00000022000022000022000023FFFFE000044
:1058C00000000000000000000000000000000000D8
:1058D0000000000800001000003000002000003030
:1058E00000001000000800000000000000000000A0
:1058F00001000001000001000001000001000001A2
:105900000000010000010000010000010000010092
:105910000001000000000000000000200000200046
:105920000010000010000000000000000000000057
:105930000000000000000000000000F00019F80066
:105940001B18002208002608002408002410003F2D
:10595000F8001FF800000800001800000004000014
:1059600007FFF80FFFF000181800100800200800CB
:105970002008003018001FF0000FC00000000000D9
:10598000000007C0001FF0001830002008002008A9
:10599000002008003C08001C10000060000000000F
:1059A00000000000000007C0001FF00038180020B1
:1059B0000800200800200804101007FFF80FFFF06F
:1059C0000000100000000000000000000007C00000
:1059D0001FF00012300022180022080022080032B6
:1059E00008001E10000E2000000000000000200033
:1059F00000200800200801FFF803FFF80620080433
:105A00002008042008072000030000000000000018
:105A10000000000E000E6E001FF30031B10020B137
:105A20000020B1003191001F13002E1E00200E0037
:105A3000300000000004000807FFF80FFFF8001016
:105A400008002000002000002008003FF8001FF898
:105A50000000080000000000000000000020080016
:105A60002008002008063FF8063FF8000008000064
:105A70000800000800000000000000000000000016
:105A800000000300000300200100200100200306A5
:105A90003FFE063FFC000000000000000000000088
:105AA0000004000807FFF80FFFF80001880003005A
:105AB000002FC00038F8002038002008000008003F
:105AC00000000000000000000400080400080400BA
:105AD0000807FFF80FFFF8000008000008000008A2
